:020000040800F2
:10000000581C0020AD150008D9150008DB150008A4
:1000100000000000000000000000000000000000E0
:10002000000000000000000000000000DD150008D6
:100030000000000000000000DF150008CD0D0008E2
:100040005B080008D7080008DB0800082F1100082B
:100050008B15000897150008E1150008E315000846
:1000600000000000E5150008E7150008E915000884
:10007000EB150008ED150008EF150008F115000854
:10008000F3150008F5150008F7150008000000003A
:10009000F9150008FB150008FD150008FF150008FC
:1000A00001160008031600080516000807160008C8
:1000B000091600080B1600080000000000000000F0
:1000C000FEB5060060D0BB4CE0680C2101400091F9
:1000D000E06880214902084001903078C0070ED5C1
:1000E0004F000098082804D00C2872D1019888424B
:1000F0006FD12068074002D07068002844D0307863
:10010000800733D5F0682021084204D022681143CB
:10011000216020218843BB4F0921C943009A042A4A
:1001200005D00C2A01D1019A002A00D08CE0226867
:10013000520701D5002827D06268174032691202A1
:100140003A436260226811400843206000F0A4FA3C
:10015000AD49E2681206120F895CC840BC490860CC
:10016000BC48006800F0E8FA010031D1A70D3078F2
:10017000C00600D4B4E00098002800D091E02068C8
:10018000800503D5B069002800D1A4E16068B249B8
:100190000140306A0843606060680002000AF1694B
:1001A0000906014361600120316A490B491C8840FE
:1001B000C0039549E2681206120F895CC840A44941
:1001C0000860A448006800F0B7FA010000D187E099
:1001D000FEBD7068884201D1206809E0A021C902F3
:1001E0008842206806D1790001432160206879089F
:1001F00001430AE0BA4901402160206879080840BB
:10020000029002982068B749014021607068002878
:100210000DD000F0B3FA05002068384000D06EE73A
:1002200000F0ACFA401B6528F6D30320FEBD00F0B9
:10023000A5FA05002068384000D160E700F09EFA7A
:10024000401B6528F6D3F0E704220192002817D05E
:10025000226811400843206000F090FA05002068F1
:100260000199014005D100F089FA401B0228F6D916
:10027000DBE760680740306900023843606075E77B
:10028000206801218843206000F078FA050020688A
:1002900001990140F3D000F071FA401B0228F6D911
:1002A000C3E7B0690028206830D03843206000F0F0
:1002B00065FA05002068800505D400F05FFA401B50
:1002C0000228F7D9B1E7606863490140306A084302
:1002D000606060680002000AF1690906014361601C
:1002E0003078000730D570690028206D1DD00121BD
:1002F0000143216500F042FA0500206D800723D4F8
:1003000000F03CFA401B0228F7D98EE776490140FD
:10031000216000F033FA050020688005E0D500F088
:100320002DFA401B0228F7D97FE701218843206579
:1003300000F024FA0500206D800705D500F01EFAB4
:10034000401B0228F7D970E73078400765D50020B8
:1003500001903805A16B014004D1A16B0843A06353
:100360000120019061480068384011D15F48006861
:1003700038435E49086000F001FA05005B480068F8
:10038000384005D100F0FAF9401B6528F6D34CE758
:10039000B168B9420AD0564800290DD0A022D20037
:1003A000914209D1206D210D01432165206D074344
:1003B000276508E000100240216D4B4A0A40226583
:1003C000216D08402065670DB06800280CD000F052
:1003D000D5F90500206D384018D100F0CFF9401B49
:1003E000A9498842F6D320E700F0C8F90500206D3E
:1003F00038400BD000F0C2F9401BA3498842F6D325
:1004000013E700BFFFE0FFFF441500080198002834
:1004100003D0A06B9D490140A163706A00285CD0A5
:1004200000990C2942D08027BF04994902282068EE
:100430002ED10140216000F0A1F90500206838406C
:100440000CD000F09BF9401B0228F7D9EDE600BF65
:100450000C00002008000020FF1FFFFFE0688D490E
:100460000140B06A0843F16A0143306B0843E06021
:10047000206879080143216000F080F905002068B8
:1004800038402AD100F07AF9401B0228F7D9CCE68F
:100490000140216000F072F90500206838401CD04E
:1004A00000F06CF9401B0228F7D9BEE6012812D0F3
:1004B000E068802149020140B26A91420BD1F021EB
:1004C00089030140F26A914205D1C021090401402B
:1004D000306B814201D00120FEBD0020FEBD00BF77
:1004E000FFFFFEFFFFFFFBFFFFFEFFFF007000406E
:1004F000FFFBFFFFF1B582B000285CD00091624F96
:1005000082480068C107C90F0098814217D27F4C0A
:1005100020680121884300990143216000F02EF9F1
:10052000009D06002068C107C90FA94206D000F04F
:1005300025F9801BB842F5D30320FEBD0095744C0D
:1005400002980078800706D5E068F0218843029978
:1005500089680143E1603E4602980078C0074DD5A6
:1005600002984068022819D12168890323D5E168DF
:10057000032291430843E06000F000F9070002986D
:1005800040680C25022818D1E0682840082835D09A
:1005900000F0F4F8C01BB042F6D3CDE7032802D137
:1005A0002168890103E00128216802D14907DED4CE
:1005B00001E08905DBD40120FEBD032809D1E068F4
:1005C00028400C281AD000F0D9F8C01BB042F6D34E
:1005D000B2E7012809D1E068284004280ED000F0D5
:1005E000CDF8C01BB042F6D3A6E7E068284005D09E
:1005F00000F0C4F8C01BB0429ED2F6E70098434911
:100600000968CA07D20F904215D2404D28680121CF
:10061000884300990143296000F0B0F8070028687A
:10062000C107C90F0098814205D000F0A7F8C01B90
:10063000B042F4D380E702980078400706D5E0681E
:10064000344901400298C0680843E060029800788D
:10065000000707D5E0683049014002980069C000F2
:100660000843E06000F018F82C49E2681206120F07
:10067000895CC8402A4908602A48006800F05CF894
:10068000010000D10020FEBD89130000FFFFFFEF35
:10069000FFFFFFFEFFFF02FF50B51D4AD168102388
:1006A0000C200840042804D0082809D00C2809D0C0
:1006B00023E01068034001D01B4850BD1B4850BDCB
:1006C0001B4850BD1B488C02240F005D09028C0F93
:1006D000641C0021D668F60301D5154A03E01268B0
:1006E000134002D0104A002300E0104A00F04CF8FA
:1006F0002200002300F061F850BD50680121000481
:10070000400F401C8140C80350BD00000020024043
:1007100000100240FFF8FFFFFFC7FFFF441500086D
:100720000C0000200800002000093D000024F40017
:1007300000127A005415000838B505000D4CFA2057
:100740008000217800F06EF801000B48006800F08E
:1007500069F800F0A4F800280AD1042D08D200227C
:1007600029000020C04300F096F8A560002032BDAB
:10077000012032BD000000200C000020014840682C
:10078000704700BF0000002030B4434351435D1860
:10079000010C0C00130C5C432D1980B2434392B240
:1007A00051430024C918644124040B04090C09199D
:1007B0005043C018694130BC7047124224D099425E
:1007C00028D970B500251B4202D00C00002109E099
:1007D0000024012649186441944200D3A41A7641AA
:1007E000F8D33100012601E0764109D200186441B6
:1007F0006D41A41A9D41F7D2A4185D41B619F5D3F5
:10080000300022002B0070BD1B42D8D108B500F08B
:1008100061F808BD01D19042D3D202000B00002143
:1008200000207047094214D088420FD30122030CE4
:1008300001D100041204002300185B418B4200D355
:100840005B1A5241F8D319001000704701000020D4
:10085000704708B500F040F808BDFEE710B5C200CB
:1008600018231340FF249C40E2438907090E994056
:10087000030004D414489B089B00C01806E0134BE7
:100880000007000F083880088000181803681A4015
:100890001143016010BD80B5FFF7E0FF01BD10B549
:1008A000401E80214904884201D3012010BD084C1C
:1008B000606003210020C043FFF7D0FF0020A0604C
:1008C0000721216010BD000000E400E01CED00E005
:1008D00010E000E07047FEE77047FEE7FFB500223A
:1008E0000F2302932DE0062403E0664CA042FAD1C8
:1008F00005246D462D78AC403443019D2C60624C3C
:100900002668DC4326404D68ED0300D51E435E4D4E
:100910002E606E6826404F68BF0300D51E436E6090
:10092000AE6826404F68FF0200D51E43AE60EE68F9
:1009300034404E68B60202D526001C003443EC60F9
:10094000521C0B681C00D44000D193E00124944059
:100950002340F5D055000327AF40FE4301964E6873
:10096000B707BF0F012F03D0B607B60F022E0ED167
:100970008768019E3E40CF68AF4037438760466836
:10098000A6434C68E706FF0F974037434760940043
:100990006E4674700C79A407A40F032C26D0C4688B
:1009A000019E26408C68AC403443C4600C79A40797
:1009B000A40F022C1AD1D408A4000419266A0396A5
:1009C0006E4677781C263E406F463E70039EB446C6
:1009D000029F6E463678B7406646BE43B4460F69FE
:1009E0006E463678B7406646374327620768032469
:1009F000019E3E404F682740BC462F006546BD40E3
:100A0000354305604D6826042E4099D001251F4EC0
:100A100036682E431D4F3E601D4E9708BF00F619E5
:100A20000196366803966E4677780C263E406F46F0
:100A30003E70039EB446029F6E463678B7406646C7
:100A4000BE43A027FF05B84201D1002451E7114F52
:100A5000B84201D101244CE70F4DA84201D1022434
:100A600047E70E4DA842FBD00D4CA04200D03CE71A
:100A700004243EE7FFBD002A01D0816170478162F6
:100A800070470000001C0050000401403410024078
:100A9000080001400004005000080050000C005005
:100AA00000100050F8B5040000200090594D207847
:100AB000800676D580204005A96B014004D1A96B42
:100AC0000843A8630120009053480068C00513D470
:100AD00051480068A90D01434F480160FFF74EFEE1
:100AE00006004D480068C00506D4FFF747FE801B8E
:100AF0006528F6D30320F2BD29686068C0229203FE
:100B00000A40C021890301408A420BD0C0218902DA
:100B10000140C0229202914204D12968890301D583
:100B20000120F2BDC027BF02296D394021D03840D5
:100B300081421ED0207880061BD5296D3748084099
:100B4000296D802212030A432A65296D344A0A401E
:100B50002A652865C0050CD5FFF710FE0600286D34
:100B6000800506D4FFF70AFE801B2E498842F6D383
:100B7000C0E7606839000140B94206D129682A4AB5
:100B80000A403901014011432960286D61680F4016
:100B900007432F650098002803D0A86B2349014024
:100BA000A9632078C00705D5E86C03218843A168B4
:100BB0000143E9642078800705D5E86C0C2188435F
:100BC000E1680143E9642078400705D5E86C1849DD
:100BD000014020690843E8642078000705D5E86CE7
:100BE0001449014060690843E8642068C00505D5E0
:100BF000E86C0A490140A0690843E86420780006CF
:100C000005D5E86C0C490140E0690843E864002020
:100C1000F2BD00000010024000700040FFFFFCFF2A
:100C2000FFFFF7FF89130000FFFFCFFFFFFFFFEF7C
:100C3000FFF3FFFFFFCFFFFFFFFFF3FF10B500F053
:100C4000AFF8564C01202070002000F033F800204F
:100C50006070A06010BD70B506000C00150000F0BB
:100C60001BF8002801D0858070BD0C2000F0CFF863
:100C7000002810D00672C480858000210160418167
:100C800046494A68002A02D1486070BD0A001168CE
:100C90000029FBD1106070BD02004048406800E0B0
:100CA0000068002805D0C3888B42F9D1037A9342AB
:100CB000F6D1704710B5040002D000F085F801E0CD
:100CC00000F083F83548447010BD10B51400FFF7EC
:100CD000C2FF002809D0448130484078002802D162
:100CE0000120FFF7E7FF012010BD052010BDF8B57A
:100CF0002A4989680918294A91605568002D42D00F
:100D00000027002469460880A8886946098881422E
:100D100001D3AF8005E069460988401AA880000425
:100D200016D16889002819D0E988002916D0287AB8
:100D300000F000F90C2000F069F9002806D0E988DD
:100D4000017047700100287A00F082F96889A88054
:100D5000A888002802D0E888002815D12868002C2F
:100D600002D10E49486000E020602E002D68B08856
:100D7000002803D1F188307A00F0DCF8300000F070
:100D8000B4F8002DC0D1F1BD2C002D68F9E780B575
:100D900002480078FFF7ABFF01BD000040180020BB
:100DA00080B5FA20800006490978FFF73BFD010075
:100DB00004480068FFF736FDFFF771FD01BD000034
:100DC000000000200C0000207047704780B5FFF73E
:100DD000DEFF01BD70B5514C002551482550E8207B
:100DE00020602000E8304F4901604F4EE221317011
:100DF000F060002000F00BF83061F4600220F08019
:100E0000B080358170BD48480169C1607047FEB54A
:100E10000500002444480078E22801D0FFF7DAFFFB
:100E2000291D8807800F01D0091D091A88B21028D2
:100E30003D4801DCC26800E002691568ADB28088F7
:100E4000394BDB886E46318001002E0405D52C001D
:100E500080252D02654000242EE0260026D0334E4A
:100E600089199B19019E36681768F619019F3E6023
:100E70006F463F88BE421FD3019A156868460488B2
:100E80001000294A16892CD02F1BBFB2042F1ADB61
:100E9000075180273F0227430760491C57888DB2BE
:100EA000BD4200D23D005580361913E06C462488BF
:100EB000A542E3DA0124019252191568ADB2002D62
:100EC000C3D10022DAE7046836195B1E80252D02A3
:100ED000254305605589B4B2AC4200D22C00548140
:100EE000001DD38091801681FEBD38B504000E4DE3
:100EF0002878E22801D0FFF76DFF241F21680C48F5
:100F000008402060E9688C4200D2EC602989081A08
:100F10002881E888401CE88031BD000020000020C6
:100F2000FC1700001417000020180020FFFF00002D
:100F3000FF7FFFFF10B50C0000F05BF8002804D025
:100F4000C1890C43C481012010BD022010BD10B521
:100F50000C0000F04EF8002804D0C189A143C181E3
:100F6000012010BD022010BD274800214160816092
:100F70000170704710B5244C606806E04168002994
:100F800001D0007B8847A0680068A060A0680028A6
:100F9000F4D110BD70B504000D0016001020FFF74D
:100FA00036FF00281AD04460856017490A7802731A
:100FB000521C0A700022C281467302600A1D4B68EF
:100FC0004C78641C4C7001E01A001B68002B04D0A4
:100FD000597B447BA142F7D20360106070BD0A4880
:100FE000406800E00068002802D0C1890029F9D0DB
:100FF000704701000448406800E00068002802D003
:10100000027B8A42F9D170473418002010B50400E1
:1010100001D1002010BD083080B2FFF7F8FE002893
:1010200005D000210160848006218171083010BD47
:1010300080B5002801D1032002BD811E0978062950
:1010400001D0072002BD0838FFF74FFF012002BD85
:1010500010B50400080010D0224A1278944203D33D
:10106000FFF7E6FF022010BD08390A68002A02D106
:101070008A79062A03D0FFF7DBFF032010BD8C71AD
:101080000100194800F032F8802109022000FFF722
:1010900051FF012010BD70B500240025124E3168AB
:1010A00006E0002D02D10C0000E00D0008390968AF
:1010B00000290AD08A1E12788242F2D1002DF4D083
:1010C00080210902FFF736FF05E080210902FFF7C2
:1010D0003EFF002D04D022002900300000F017F858
:1010E000280070BD351800204C1800200200002395
:1010F0000800083803601068002802D111607047AA
:10110000100008380268002AFAD10160704730B533
:101110000B00083B1C680568A94201D1046001E08E
:10112000083A1460002018600620987130BDFEE770
:101130003849087000204870704710B5364C207050
:1011400000F070F80020607010BDF8B50D002904A3
:101150002AD50400FFF79FFF2D4F2F4E69460C70D4
:101160001FE02078022815D1012220213800FFF746
:1011700082FC01200DE070780028F2D0012809D10E
:101180002078022806D1002220213800FFF773FCC6
:10119000002070702000FFF74BFF68460078FFF7D3
:1011A0007AFF0400E7D139E00020F2BDF8B50D0068
:1011B00029042AD50400FFF76EFF154F154E694626
:1011C0000C701FE02078012815D101224021380041
:1011D000FFF751FC01200DE070780028F2D00128C3
:1011E00009D12078012806D1002240213800FFF7DC
:1011F00042FC002070702000FFF71AFF684600785C
:10120000FFF749FF0400E7D108E00020F2BD00002D
:1012100000040050501800205218002080200002C6
:101220006840F2BD10B586B01422002101A800F07C
:1012300029F8042011490A6802430A600A6810402C
:101240000090009802200A6802430A60096808407A
:10125000009000980A4C012260212000FFF70BFC4F
:10126000602001900120029000200390049001A9C9
:101270002000FFF733FB06B010BD00BF2C1002406A
:101280000004005010B50400080011000200200006
:1012900000F002F8200010BD094202D0491E42545D
:1012A000FCD1704780B500F061F800F006F8FFF758
:1012B000B9FF00F06FF8002002BD38B59AB025489C
:1012C00025490A680240CB0C13430B6023490A6886
:1012D0001040086006200D9009201090F7300F9004
:1012E00010201190002416941D4D0DA8FEF7E8FE65
:1012F000002803D03721280000F022F80F200090AA
:101300000120019002940394049400216846FFF7A1
:10131000F1F8002803D04421280000F011F88420BF
:1013200005900994C02000030C9005A8FFF7BAFBB4
:10133000002803D04E21280000F002F81BB030BD79
:10134000BFF34F8F074808490860BFF34F8F00BFB6
:10135000FDE70000FFE7FFFF007000405010024073
:10136000901400080400FA050CED00E010B500240C
:101370000748016840220A4302600020FFF7DCF9B9
:10138000002801D0012401E000F030F8200010BD59
:101390000020024080B500F037F801220D490E48C8
:1013A000FFF7F8FD02220D490D48FFF7F3FDFFF7A7
:1013B000E1FDFFF728FD142201210A480078FFF71C
:1013C00084FC0A22022108480078FFF77EFC00F026
:1013D00027F801BDAD110008311100084B110008BC
:1013E0003B110008501800205218002005480168E1
:1013F00001220A4302604168802252050A4342608A
:10140000704700BF3410024080B5FFF7E3FC0020B6
:101410000E490860FFF712FCFFF7A6FD012002BD90
:1014200010B50B4CFFF7DBFD20600028FAD0C18916
:101430000022C2810A00F5D08268002AF2D0007B27
:1014400090472168CA891043C881EBE74C180020F7
:101450003C18002070B40123002413E00168001D33
:10146000194202D04D466D1E49190C60091D121F0C
:10147000042AFAD20D00960701D50C80AD1C1A4043
:1014800000D02C700268001D002AE7D170BC7047A4
:10149000443A5C436F6D70616E795C776F726B5C20
:1014A000315F50726F6A6563745C4F53414C5F4C9F
:1014B00045445C436F72655C5372635C6D61696E39
:1014C0002E63000030B401220EE00368C3184468A4
:1014D0000830144202D04D466D1E64191D68256007
:1014E0001B1D241D091FF9D10168001D0029ECD125
:1014F00030BC704710B5074979441831064C7C441C
:10150000163404E0081D0A68891888470100A142C2
:10151000F8D110BD080000002800000039FFFFFFCF
:1015200034180000200000200000000099FFFFFF99
:1015300010000000880000000000002000000000F3
:1015400070470000000000000000000001020304DA
:1015500006070809030406080C10182030000000D4
:1015600000F00DF8002801D0FFF7C4FF00BF00BF56
:10157000002000BF00BFFFF795FE00F002F8012039
:10158000704780B500F002F801BDFEE70746384617
:1015900000F002F8FBE7FEE780B500BF00BF024A9B
:1015A00011001820ABBEFBE726000200014880476F
:1015B0000148004741150008CD15000864000000EF
:1015C00000000000040000000000200000BF00BF79
:1015D00000BF00BFFFF7C4FFFEE7FEE7704770479C
:1015E000FEE7FEE7FEE7FEE7FEE7FEE7FEE7FEE7D3
:1015F000FEE7FEE7FEE7FEE7FEE7FEE7FEE7FEE7C3
:0C160000FEE7FEE7FEE7FEE7FEE7FEE780
:04000005080015CD0D
:00000001FF
