:020000040800F2
:10000000581C00206D140008891400088B14000887
:1000100000000000000000000000000000000000E0
:100020000000000000000000000000008D14000827
:1000300000000000000000008F140008110F0008ED
:100040005B080008D7080008DB0800083714000820
:100050004314000891140008931400089514000834
:100060000000000097140008991400089B14000871
:100070009D1400089F140008A1140008A314000890
:10008000A5140008A7140008A91400080000000027
:10009000AB140008AD140008AF140008B114000838
:1000A000B3140008B5140008B7140008B914000808
:1000B000BB140008BD140008000000000000000090
:1000C000FEB5060060D0BB4CE0680C2101400091F9
:1000D000E06880214902084001903078C0070ED5C1
:1000E0004F000098082804D00C2872D1019888424B
:1000F0006FD12068074002D07068002844D0307863
:10010000800733D5F0682021084204D022681143CB
:10011000216020218843BB4F0921C943009A042A4A
:1001200005D00C2A01D1019A002A00D08CE0226867
:10013000520701D5002827D06268174032691202A1
:100140003A436260226811400843206000F0A4FA3C
:10015000AD49E2681206120F895CC840BC490860CC
:10016000BC48006800F0E8FA010031D1A70D3078F2
:10017000C00600D4B4E00098002800D091E02068C8
:10018000800503D5B069002800D1A4E16068B249B8
:100190000140306A0843606060680002000AF1694B
:1001A0000906014361600120316A490B491C8840FE
:1001B000C0039549E2681206120F895CC840A44941
:1001C0000860A448006800F0B7FA010000D187E099
:1001D000FEBD7068884201D1206809E0A021C902F3
:1001E0008842206806D1790001432160206879089F
:1001F00001430AE0BA4901402160206879080840BB
:10020000029002982068B749014021607068002878
:100210000DD000F0B3FA05002068384000D06EE73A
:1002200000F0ACFA401B6528F6D30320FEBD00F0B9
:10023000A5FA05002068384000D160E700F09EFA7A
:10024000401B6528F6D3F0E704220192002817D05E
:10025000226811400843206000F090FA05002068F1
:100260000199014005D100F089FA401B0228F6D916
:10027000DBE760680740306900023843606075E77B
:10028000206801218843206000F078FA050020688A
:1002900001990140F3D000F071FA401B0228F6D911
:1002A000C3E7B0690028206830D03843206000F0F0
:1002B00065FA05002068800505D400F05FFA401B50
:1002C0000228F7D9B1E7606863490140306A084302
:1002D000606060680002000AF1690906014361601C
:1002E0003078000730D570690028206D1DD00121BD
:1002F0000143216500F042FA0500206D800723D4F8
:1003000000F03CFA401B0228F7D98EE776490140FD
:10031000216000F033FA050020688005E0D500F088
:100320002DFA401B0228F7D97FE701218843206579
:1003300000F024FA0500206D800705D500F01EFAB4
:10034000401B0228F7D970E73078400765D50020B8
:1003500001903805A16B014004D1A16B0843A06353
:100360000120019061480068384011D15F48006861
:1003700038435E49086000F001FA05005B480068F8
:10038000384005D100F0FAF9401B6528F6D34CE758
:10039000B168B9420AD0564800290DD0A022D20037
:1003A000914209D1206D210D01432165206D074344
:1003B000276508E000100240216D4B4A0A40226583
:1003C000216D08402065670DB06800280CD000F052
:1003D000D5F90500206D384018D100F0CFF9401B49
:1003E000A9498842F6D320E700F0C8F90500206D3E
:1003F00038400BD000F0C2F9401BA3498842F6D325
:1004000013E700BFFFE0FFFFF0130008019800288A
:1004100003D0A06B9D490140A163706A00285CD0A5
:1004200000990C2942D08027BF04994902282068EE
:100430002ED10140216000F0A1F90500206838406C
:100440000CD000F09BF9401B0228F7D9EDE600BF65
:10045000100000200C000020FF1FFFFFE0688D4906
:100460000140B06A0843F16A0143306B0843E06021
:10047000206879080143216000F080F905002068B8
:1004800038402AD100F07AF9401B0228F7D9CCE68F
:100490000140216000F072F90500206838401CD04E
:1004A00000F06CF9401B0228F7D9BEE6012812D0F3
:1004B000E068802149020140B26A91420BD1F021EB
:1004C00089030140F26A914205D1C021090401402B
:1004D000306B814201D00120FEBD0020FEBD00BF77
:1004E000FFFFFEFFFFFFFBFFFFFEFFFF007000406E
:1004F000FFFBFFFFF1B582B000285CD00091624F96
:1005000082480068C107C90F0098814217D27F4C0A
:1005100020680121884300990143216000F02EF9F1
:10052000009D06002068C107C90FA94206D000F04F
:1005300025F9801BB842F5D30320FEBD0095744C0D
:1005400002980078800706D5E068F0218843029978
:1005500089680143E1603E4602980078C0074DD5A6
:1005600002984068022819D12168890323D5E168DF
:10057000032291430843E06000F000F9070002986D
:1005800040680C25022818D1E0682840082835D09A
:1005900000F0F4F8C01BB042F6D3CDE7032802D137
:1005A0002168890103E00128216802D14907DED4CE
:1005B00001E08905DBD40120FEBD032809D1E068F4
:1005C00028400C281AD000F0D9F8C01BB042F6D34E
:1005D000B2E7012809D1E068284004280ED000F0D5
:1005E000CDF8C01BB042F6D3A6E7E068284005D09E
:1005F00000F0C4F8C01BB0429ED2F6E70098434911
:100600000968CA07D20F904215D2404D28680121CF
:10061000884300990143296000F0B0F8070028687A
:10062000C107C90F0098814205D000F0A7F8C01B90
:10063000B042F4D380E702980078400706D5E0681E
:10064000344901400298C0680843E060029800788D
:10065000000707D5E0683049014002980069C000F2
:100660000843E06000F018F82C49E2681206120F07
:10067000895CC8402A4908602A48006800F05CF894
:10068000010000D10020FEBD89130000FFFFFFEF35
:10069000FFFFFFFEFFFF02FF50B51D4AD168102388
:1006A0000C200840042804D0082809D00C2809D0C0
:1006B00023E01068034001D01B4850BD1B4850BDCB
:1006C0001B4850BD1B488C02240F005D09028C0F93
:1006D000641C0021D668F60301D5154A03E01268B0
:1006E000134002D0104A002300E0104A00F04CF8FA
:1006F0002200002300F061F850BD50680121000481
:10070000400F401C8140C80350BD00000020024043
:1007100000100240FFF8FFFFFFC7FFFFF0130008C3
:10072000100000200C00002000093D000024F4000F
:1007300000127A000014000838B505000D4CFA20AC
:100740008000217800F06EF801000B48006800F08E
:1007500069F800F0A4F800280AD1042D08D200227C
:1007600029000020C04300F096F8A560002032BDAB
:10077000012032BD04000020100000200148406824
:10078000704700BF0400002030B4434351435D185C
:10079000010C0C00130C5C432D1980B2434392B240
:1007A00051430024C918644124040B04090C09199D
:1007B0005043C018694130BC7047124224D099425E
:1007C00028D970B500251B4202D00C00002109E099
:1007D0000024012649186441944200D3A41A7641AA
:1007E000F8D33100012601E0764109D200186441B6
:1007F0006D41A41A9D41F7D2A4185D41B619F5D3F5
:10080000300022002B0070BD1B42D8D108B500F08B
:1008100061F808BD01D19042D3D202000B00002143
:1008200000207047094214D088420FD30122030CE4
:1008300001D100041204002300185B418B4200D355
:100840005B1A5241F8D319001000704701000020D4
:10085000704708B500F040F808BDFEE710B5C200CB
:1008600018231340FF249C40E2438907090E994056
:10087000030004D414489B089B00C01806E0134BE7
:100880000007000F083880088000181803681A4015
:100890001143016010BD80B5FFF7E0FF01BD10B549
:1008A000401E80214904884201D3012010BD084C1C
:1008B000606003210020C043FFF7D0FF0020A0604C
:1008C0000721216010BD000000E400E01CED00E005
:1008D00010E000E07047FEE77047FEE7FFB500223A
:1008E0000F2302932DE0062403E0664CA042FAD1C8
:1008F00005246D462D78AC403443019D2C60624C3C
:100900002668DC4326404D68ED0300D51E435E4D4E
:100910002E606E6826404F68BF0300D51E436E6090
:10092000AE6826404F68FF0200D51E43AE60EE68F9
:1009300034404E68B60202D526001C003443EC60F9
:10094000521C0B681C00D44000D193E00124944059
:100950002340F5D055000327AF40FE4301964E6873
:10096000B707BF0F012F03D0B607B60F022E0ED167
:100970008768019E3E40CF68AF4037438760466836
:10098000A6434C68E706FF0F974037434760940043
:100990006E4674700C79A407A40F032C26D0C4688B
:1009A000019E26408C68AC403443C4600C79A40797
:1009B000A40F022C1AD1D408A4000419266A0396A5
:1009C0006E4677781C263E406F463E70039EB446C6
:1009D000029F6E463678B7406646BE43B4460F69FE
:1009E0006E463678B7406646374327620768032469
:1009F000019E3E404F682740BC462F006546BD40E3
:100A0000354305604D6826042E4099D001251F4EC0
:100A100036682E431D4F3E601D4E9708BF00F619E5
:100A20000196366803966E4677780C263E406F46F0
:100A30003E70039EB446029F6E463678B7406646C7
:100A4000BE43A027FF05B84201D1002451E7114F52
:100A5000B84201D101244CE70F4DA84201D1022434
:100A600047E70E4DA842FBD00D4CA04200D03CE71A
:100A700004243EE7FFBD002A01D0816170478162F6
:100A800070470000001C0050000401403410024078
:100A9000080001400004005000080050000C005005
:100AA00000100050F8B5040000200090594D207847
:100AB000800676D580204005A96B014004D1A96B42
:100AC0000843A8630120009053480068C00513D470
:100AD00051480068A90D01434F480160FFF74EFEE1
:100AE00006004D480068C00506D4FFF747FE801B8E
:100AF0006528F6D30320F2BD29686068C0229203FE
:100B00000A40C021890301408A420BD0C0218902DA
:100B10000140C0229202914204D12968890301D583
:100B20000120F2BDC027BF02296D394021D03840D5
:100B300081421ED0207880061BD5296D3748084099
:100B4000296D802212030A432A65296D344A0A401E
:100B50002A652865C0050CD5FFF710FE0600286D34
:100B6000800506D4FFF70AFE801B2E498842F6D383
:100B7000C0E7606839000140B94206D129682A4AB5
:100B80000A403901014011432960286D61680F4016
:100B900007432F650098002803D0A86B2349014024
:100BA000A9632078C00705D5E86C03218843A168B4
:100BB0000143E9642078800705D5E86C0C2188435F
:100BC000E1680143E9642078400705D5E86C1849DD
:100BD000014020690843E8642078000705D5E86CE7
:100BE0001449014060690843E8642068C00505D5E0
:100BF000E86C0A490140A0690843E86420780006CF
:100C000005D5E86C0C490140E0690843E864002020
:100C1000F2BD00000010024000700040FFFFFCFF2A
:100C2000FFFFF7FF89130000FFFFCFFFFFFFFFEF7C
:100C3000FFF3FFFFFFCFFFFFFFFFF3FF70B5514C46
:100C4000002551482550E82020602000E8304F4919
:100C500001604F4EE2213170F060002000F00BF88F
:100C60003061F4600220F080B080358170BD48486A
:100C70000169C1607047FEB5050000244448007852
:100C8000E22801D0FFF7DAFF291D8807800F01D085
:100C9000091D091A88B210283D4801DCC26800E02D
:100CA00002691568ADB28088394BDB886E463180A9
:100CB00001002E0405D52C0080252D02654000245E
:100CC0002EE0260026D0334E89199B19019E3668E6
:100CD0001768F619019F3E606F463F88BE421FD3DA
:100CE000019A1568684604881000294A16892CD094
:100CF0002F1BBFB2042F1ADB075180273F02274367
:100D00000760491C57888DB2BD4200D23D00558016
:100D1000361913E06C462488A542E3DA01240192D7
:100D200052191568ADB2002DC3D10022DAE704686C
:100D300036195B1E80252D02254305605589B4B206
:100D4000AC4200D22C005481001DD38091801681CA
:100D5000FEBD38B504000E4D2878E22801D0FFF71B
:100D60006DFF241F21680C4808402060E9688C4210
:100D700000D2EC602989081A2881E888401CE880A4
:100D800031BD000020000020FC17000014170000F7
:100D900020180020FFFF0000FF7FFFFF10B500F0CC
:100DA000A1F84F4C01202070002000F033F8002003
:100DB0006070A06010BD70B506000C00150000F05A
:100DC0001BF8002801D0858070BD0C20FFF753FF71
:100DD000002810D00672C480858000210160418106
:100DE0003F494A68002A02D1486070BD0A00116874
:100DF0000029FBD1106070BD02003948406800E056
:100E00000068002805D0C3888B42F9D1037A934249
:100E1000F6D1704710B5040002D000F077F801E079
:100E200000F075F82E48447010BD10B51400FFF79F
:100E3000C2FF002809D0448129484078002802D107
:100E40000120FFF7E7FF012010BD052010BDF8B518
:100E5000234FB9680918B9607D68002D35D000248A
:100E600069460880A88869460988814202D3002023
:100E7000A88005E069460988401AA88000040AD1C4
:100E8000688900280DD0E98800290AD0287A00F066
:100E900043F86889A880A888002802D0E88800283C
:100EA00014D12868002C01D1786000E020602E0069
:100EB0002D68B088002803D1F188307A00F02CF832
:100EC0003000FFF746FF002DCCD1F1BD2C002D687E
:100ED000F9E780B502480078FFF7B9FF01BD0000CF
:100EE0004018002080B5FA20800006490978FFF7F5
:100EF00099FC010004480068FFF794FCFFF7CFFC61
:100F000001BD000004000020100000207047704761
:100F100080B5FFF7DEFF01BD10B50C0000F05BF8F7
:100F2000002804D0C1890C43C481012010BD0220D7
:100F300010BD10B50C0000F04EF8002804D0C18997
:100F4000A143C181012010BD022010BD274800210E
:100F5000416081600170704710B5244C606806E004
:100F60004168002901D0007B8847A0680068A06024
:100F7000A0680028F4D110BD70B504000D00160063
:100F80001020FFF778FE00281AD0446085601749CA
:100F90000A780273521C0A700022C28146730260F2
:100FA0000A1D4B684C78641C4C7001E01A001B68E9
:100FB000002B04D0597B447BA142F7D20360106020
:100FC00070BD0A48406800E00068002802D0C1896E
:100FD0000029F9D0704701000448406800E000682B
:100FE000002802D0027B8A42F9D1704734180020D1
:100FF00080B500F061F800F006F800F071F800F03C
:101000009FF8002002BD38B59AB0254825490A68E6
:101010000240CB0C13430B6023490A681040086060
:1010200006200D9009201090F7300F90102011909D
:10103000002416941D4D0DA8FFF742F8002803D098
:101040003721280000F022F80F20009001200190A5
:1010500002940394049400216846FFF74BFA002899
:1010600003D04421280000F011F884200590099451
:10107000C02000030C9005A8FFF714FD002803D042
:101080004E21280000F002F81BB030BDBFF34F8F97
:10109000074808490860BFF34F8F00BFFDE7000015
:1010A000FFE7FFFF0070004050100240F8120008F8
:1010B0000400FA050CED00E010B5002407480168B3
:1010C00040220A4302600020FFF736FB002801D0CF
:1010D000012401E000F050F8200010BD0020024083
:1010E00010B586B01422002101A800F053F80420A6
:1010F00011490A6802430A600A681040009000988B
:1011000002200A6802430A600968084000900098BB
:101110000A4C012260212000FFF7ADFC6020019005
:101120000120029000200390049001A92000FFF705
:10113000D5FB06B010BD00BF2C10024000040050CB
:1011400080B500F031F8012208490948FFF714FF83
:10115000FFF702FFFFF78BFDFA22920001210548FD
:101160000078FFF762FE00F02BF801BDA112000825
:1011700095120008501800200548016801220A4312
:1011800002604168802252050A434260704700BFF6
:101190003410024010B504000800110002002000C5
:1011A00000F028F8200010BD80B5FFF747FD0020B3
:1011B0000E490860FFF7F2FDFFF7C8FE012002BDEF
:1011C00010B50B4CFFF7FDFE20600028FAD0C18956
:1011D0000022C2810A00F5D08268002AF2D0007B8A
:1011E00090472168CA891043C881EBE74C1800205A
:1011F0003C180020094202D0491E4254FCD17047DD
:1012000080B5002801D1032002BD811E097806297E
:1012100001D0072002BD0838FFF79BFD012002BD69
:1012200070B500240025124E316806E0002D02D171
:101230000C0000E00D000839096800290AD08A1E58
:1012400012788242F2D1002DF4D080210902FFF7FA
:1012500063FE05E080210902FFF76BFE002D04D03C
:1012600022002900300000F005F8280070BD0000C1
:101270004C18002030B50B00083B1C680568A942DB
:1012800001D1046001E0083A1460002018600620D3
:10129000987130BD80B515490870FFF721FF01BD79
:1012A00070B50C0080252D022C4209D0060002E00A
:1012B000FFF7A6FF3000FFF7B3FF0028F8D10FE0DB
:1012C000E00710D501250A480A490A68002A03D018
:1012D00000220A60012200E00D604021FFF7CBFBF5
:1012E0006540280070BD002070BD0000501800202F
:1012F0000004005000000020443A5C436F6D7061B0
:101300006E795C776F726B5C315F50726F6A656388
:10131000745C4F53414C5F4C45445C4F53414C5FB0
:101320004C45445C436F72655C5372635C6D6169EC
:101330006E2E630070B40123002413E00168001DC9
:10134000194202D04D466D1E49190C60091D121F2D
:10135000042AFAD20D00960701D50C80AD1C1A4064
:1013600000D02C700268001D002AE7D170BC7047C5
:1013700030B401220EE00368C318446808301442F8
:1013800002D04D466D1E64191D6825601B1D241D6D
:10139000091FF9D10168001D0029ECD130BC70474C
:1013A00010B5074979441831064C7C44163404E0E2
:1013B000081D0A68891888470100A142F8D110BDAC
:1013C00008000000280000006DFFFFFF3418000037
:1013D000200000200000000099FFFFFF1400000023
:1013E00078000000000000200000000070470000AE
:1013F00000000000000000000102030406070809C5
:10140000030406080C1018203000000000F00DF84E
:10141000002801D0FFF7C4FF00BF00BF002000BFBD
:1014200000BFFFF7E5FD00F002F80120704780B52E
:1014300000F002F801BDFEE70746384600F002F86A
:10144000FBE7FEE780B500BF00BF024A110018208D
:10145000ABBEFBE7260002000100000064000000B4
:101460000000000004000000000020000148804748
:1014700001480047ED1300087D14000800BF00BFBD
:1014800000BF00BFFFF7C2FFFEE7FEE770477047EF
:10149000FEE7FEE7FEE7FEE7FEE7FEE7FEE7FEE724
:1014A000FEE7FEE7FEE7FEE7FEE7FEE7FEE7FEE714
:0E14B000FEE7FEE7FEE7FEE7FEE7FEE7FEE7EB
:040000050800147D5E
:00000001FF
